{
  "_format": "hh-sol-artifact-1",
  "contractName": "SafePay",
  "sourceName": "contracts/SafePay.sol",
  "abi": [
    {
      "inputs": [],
      "stateMutability": "nonpayable",
      "type": "constructor"
    },
    {
      "anonymous": false,
      "inputs": [
        {
          "indexed": false,
          "internalType": "address",
          "name": "payer",
          "type": "address"
        },
        {
          "indexed": false,
          "internalType": "address",
          "name": "reciever",
          "type": "address"
        },
        {
          "indexed": false,
          "internalType": "address",
          "name": "token",
          "type": "address"
        },
        {
          "indexed": false,
          "internalType": "uint256",
          "name": "amount",
          "type": "uint256"
        },
        {
          "indexed": false,
          "internalType": "uint256",
          "name": "timePeriod",
          "type": "uint256"
        },
        {
          "indexed": false,
          "internalType": "string",
          "name": "name",
          "type": "string"
        }
      ],
      "name": "RequestSubscribtion",
      "type": "event"
    },
    {
      "anonymous": false,
      "inputs": [
        {
          "indexed": false,
          "internalType": "address",
          "name": "reciever",
          "type": "address"
        },
        {
          "indexed": false,
          "internalType": "uint256",
          "name": "timePeriod",
          "type": "uint256"
        },
        {
          "indexed": false,
          "internalType": "uint256",
          "name": "amount",
          "type": "uint256"
        },
        {
          "indexed": false,
          "internalType": "string",
          "name": "name",
          "type": "string"
        }
      ],
      "name": "Subscribe",
      "type": "event"
    },
    {
      "anonymous": false,
      "inputs": [
        {
          "indexed": false,
          "internalType": "address",
          "name": "reciever",
          "type": "address"
        },
        {
          "indexed": false,
          "internalType": "uint256",
          "name": "timePeriod",
          "type": "uint256"
        },
        {
          "indexed": false,
          "internalType": "uint256",
          "name": "amount",
          "type": "uint256"
        },
        {
          "indexed": false,
          "internalType": "string",
          "name": "name",
          "type": "string"
        }
      ],
      "name": "UnSubscribe",
      "type": "event"
    },
    {
      "inputs": [
        {
          "internalType": "bytes32",
          "name": "id",
          "type": "bytes32"
        }
      ],
      "name": "acceptRequest",
      "outputs": [],
      "stateMutability": "nonpayable",
      "type": "function"
    },
    {
      "inputs": [
        {
          "internalType": "bytes32",
          "name": "id",
          "type": "bytes32"
        }
      ],
      "name": "cancelRequest",
      "outputs": [],
      "stateMutability": "nonpayable",
      "type": "function"
    },
    {
      "inputs": [
        {
          "internalType": "bytes32",
          "name": "id",
          "type": "bytes32"
        }
      ],
      "name": "claim",
      "outputs": [],
      "stateMutability": "nonpayable",
      "type": "function"
    },
    {
      "inputs": [
        {
          "internalType": "address",
          "name": "payer",
          "type": "address"
        },
        {
          "internalType": "address",
          "name": "reciever",
          "type": "address"
        },
        {
          "internalType": "address",
          "name": "token",
          "type": "address"
        },
        {
          "internalType": "uint256",
          "name": "amount",
          "type": "uint256"
        },
        {
          "internalType": "uint256",
          "name": "timePeriod",
          "type": "uint256"
        },
        {
          "internalType": "string",
          "name": "message",
          "type": "string"
        }
      ],
      "name": "createRequest",
      "outputs": [
        {
          "internalType": "bytes32",
          "name": "id",
          "type": "bytes32"
        }
      ],
      "stateMutability": "nonpayable",
      "type": "function"
    },
    {
      "inputs": [
        {
          "internalType": "address",
          "name": "payer",
          "type": "address"
        },
        {
          "internalType": "address",
          "name": "reciever",
          "type": "address"
        },
        {
          "internalType": "address",
          "name": "token",
          "type": "address"
        },
        {
          "internalType": "uint256",
          "name": "amount",
          "type": "uint256"
        },
        {
          "internalType": "uint256",
          "name": "timePeriod",
          "type": "uint256"
        },
        {
          "internalType": "string",
          "name": "message",
          "type": "string"
        },
        {
          "internalType": "uint256",
          "name": "nonce",
          "type": "uint256"
        }
      ],
      "name": "getId",
      "outputs": [
        {
          "internalType": "bytes32",
          "name": "",
          "type": "bytes32"
        }
      ],
      "stateMutability": "pure",
      "type": "function"
    },
    {
      "inputs": [
        {
          "internalType": "bytes32",
          "name": "id",
          "type": "bytes32"
        }
      ],
      "name": "getPayments",
      "outputs": [
        {
          "components": [
            {
              "internalType": "address",
              "name": "payer",
              "type": "address"
            },
            {
              "internalType": "address",
              "name": "reciever",
              "type": "address"
            },
            {
              "internalType": "address",
              "name": "token",
              "type": "address"
            },
            {
              "internalType": "uint256",
              "name": "amount",
              "type": "uint256"
            },
            {
              "internalType": "uint256",
              "name": "timePeriod",
              "type": "uint256"
            },
            {
              "internalType": "string",
              "name": "message",
              "type": "string"
            },
            {
              "internalType": "uint256",
              "name": "lastPayment",
              "type": "uint256"
            },
            {
              "internalType": "bool",
              "name": "approved",
              "type": "bool"
            },
            {
              "internalType": "bool",
              "name": "isNew",
              "type": "bool"
            }
          ],
          "internalType": "struct SafePay.Payment",
          "name": "",
          "type": "tuple"
        }
      ],
      "stateMutability": "view",
      "type": "function"
    },
    {
      "inputs": [
        {
          "internalType": "address",
          "name": "_addr",
          "type": "address"
        }
      ],
      "name": "getPaymentsId",
      "outputs": [
        {
          "internalType": "bytes32[]",
          "name": "",
          "type": "bytes32[]"
        }
      ],
      "stateMutability": "view",
      "type": "function"
    },
    {
      "inputs": [
        {
          "internalType": "bytes32",
          "name": "id",
          "type": "bytes32"
        }
      ],
      "name": "isAuthorized",
      "outputs": [
        {
          "internalType": "bool",
          "name": "isAllowed",
          "type": "bool"
        }
      ],
      "stateMutability": "view",
      "type": "function"
    },
    {
      "inputs": [
        {
          "internalType": "bytes32",
          "name": "",
          "type": "bytes32"
        }
      ],
      "name": "paymentRequests",
      "outputs": [
        {
          "internalType": "address",
          "name": "payer",
          "type": "address"
        },
        {
          "internalType": "address",
          "name": "reciever",
          "type": "address"
        },
        {
          "internalType": "address",
          "name": "token",
          "type": "address"
        },
        {
          "internalType": "uint256",
          "name": "amount",
          "type": "uint256"
        },
        {
          "internalType": "uint256",
          "name": "timePeriod",
          "type": "uint256"
        },
        {
          "internalType": "string",
          "name": "message",
          "type": "string"
        },
        {
          "internalType": "uint256",
          "name": "lastPayment",
          "type": "uint256"
        },
        {
          "internalType": "bool",
          "name": "approved",
          "type": "bool"
        },
        {
          "internalType": "bool",
          "name": "isNew",
          "type": "bool"
        }
      ],
      "stateMutability": "view",
      "type": "function"
    },
    {
      "inputs": [
        {
          "internalType": "address",
          "name": "",
          "type": "address"
        },
        {
          "internalType": "uint256",
          "name": "",
          "type": "uint256"
        }
      ],
      "name": "safePayments",
      "outputs": [
        {
          "internalType": "bytes32",
          "name": "",
          "type": "bytes32"
        }
      ],
      "stateMutability": "view",
      "type": "function"
    }
  ],
  "bytecode": "0x608060405234801561001057600080fd5b506123ae806100206000396000f3fe608060405234801561001057600080fd5b506004361061009e5760003560e01c806362f4ed901161006657806362f4ed9014610187578063a721cd30146101b7578063b00838a9146101d3578063bd66528a14610203578063fc4793aa1461021f5761009e565b80630d7a55ba146100a357806323f52b6d146100db5780633873da811461010b57806339755acb1461013b578063501255461461016b575b600080fd5b6100bd60048036038101906100b891906115be565b61024f565b6040516100d2999897969594939291906116f9565b60405180910390f35b6100f560048036038101906100f0919061191a565b61039f565b60405161010291906119e7565b60405180910390f35b61012560048036038101906101209190611a02565b6103e1565b60405161013291906119e7565b60405180910390f35b61015560048036038101906101509190611aab565b610745565b60405161016291906119e7565b60405180910390f35b610185600480360381019061018091906115be565b610776565b005b6101a1600480360381019061019c91906115be565b610a73565b6040516101ae9190611aeb565b60405180910390f35b6101d160048036038101906101cc91906115be565b610aa0565b005b6101ed60048036038101906101e891906115be565b610d7e565b6040516101fa9190611c42565b60405180910390f35b61021d600480360381019061021891906115be565b610f94565b005b61023960048036038101906102349190611c64565b6113a9565b6040516102469190611d4f565b60405180910390f35b60016020528060005260406000206000915090508060000160009054906101000a900473ffffffffffffffffffffffffffffffffffffffff16908060010160009054906101000a900473ffffffffffffffffffffffffffffffffffffffff16908060020160009054906101000a900473ffffffffffffffffffffffffffffffffffffffff16908060030154908060040154908060050180546102f090611da0565b80601f016020809104026020016040519081016040528092919081815260200182805461031c90611da0565b80156103695780601f1061033e57610100808354040283529160200191610369565b820191906000526020600020905b81548152906001019060200180831161034c57829003601f168201915b5050505050908060060154908060070160009054906101000a900460ff16908060070160019054906101000a900460ff16905089565b6000878787878787876040516020016103be9796959493929190611dd2565b604051602081830303815290604052805190602001209050979650505050505050565b6000806000808873ffffffffffffffffffffffffffffffffffffffff1673ffffffffffffffffffffffffffffffffffffffff1681526020019081526020016000208054905090506104378888888888888761039f565b915060006040518061012001604052808a73ffffffffffffffffffffffffffffffffffffffff1681526020018973ffffffffffffffffffffffffffffffffffffffff1681526020018873ffffffffffffffffffffffffffffffffffffffff168152602001878152602001868152602001858152602001600081526020016000151581526020016001151581525090506000808a73ffffffffffffffffffffffffffffffffffffffff1673ffffffffffffffffffffffffffffffffffffffff1681526020019081526020016000208390806001815401808255809150506001900390600052602060002001600090919091909150556000808973ffffffffffffffffffffffffffffffffffffffff1673ffffffffffffffffffffffffffffffffffffffff168152602001908152602001600020839080600181540180825580915050600190039060005260206000200160009091909190915055806001600085815260200190815260200160002060008201518160000160006101000a81548173ffffffffffffffffffffffffffffffffffffffff021916908373ffffffffffffffffffffffffffffffffffffffff16021790555060208201518160010160006101000a81548173ffffffffffffffffffffffffffffffffffffffff021916908373ffffffffffffffffffffffffffffffffffffffff16021790555060408201518160020160006101000a81548173ffffffffffffffffffffffffffffffffffffffff021916908373ffffffffffffffffffffffffffffffffffffffff160217905550606082015181600301556080820151816004015560a08201518160050190805190602001906106a992919061143f565b5060c0820151816006015560e08201518160070160006101000a81548160ff0219169083151502179055506101008201518160070160016101000a81548160ff0219169083151502179055509050507f743bd517fb1287d004be07f3ab1a9dec67bef59ffd6fd04495274fd2b4ef2b6689898989898960405161073196959493929190611e48565b60405180910390a150509695505050505050565b6000602052816000526040600020818154811061076157600080fd5b90600052602060002001600091509150505481565b600060016000838152602001908152602001600020604051806101200160405290816000820160009054906101000a900473ffffffffffffffffffffffffffffffffffffffff1673ffffffffffffffffffffffffffffffffffffffff1673ffffffffffffffffffffffffffffffffffffffff1681526020016001820160009054906101000a900473ffffffffffffffffffffffffffffffffffffffff1673ffffffffffffffffffffffffffffffffffffffff1673ffffffffffffffffffffffffffffffffffffffff1681526020016002820160009054906101000a900473ffffffffffffffffffffffffffffffffffffffff1673ffffffffffffffffffffffffffffffffffffffff1673ffffffffffffffffffffffffffffffffffffffff16815260200160038201548152602001600482015481526020016005820180546108bd90611da0565b80601f01602080910402602001604051908101604052809291908181526020018280546108e990611da0565b80156109365780601f1061090b57610100808354040283529160200191610936565b820191906000526020600020905b81548152906001019060200180831161091957829003601f168201915b50505050508152602001600682015481526020016007820160009054906101000a900460ff161515151581526020016007820160019054906101000a900460ff16151515158152505090503373ffffffffffffffffffffffffffffffffffffffff16816000015173ffffffffffffffffffffffffffffffffffffffff16146109f3576040517f08c379a00000000000000000000000000000000000000000000000000000000081526004016109ea90611f22565b60405180910390fd5b60006001600084815260200190815260200160002060070160006101000a81548160ff0219169083151502179055507fb3c35bd6b324d8648d111bb8bd70f40710d0f3a53436c51203076dd46c7235318160200151826080015183606001518460a00151604051610a679493929190611f42565b60405180910390a15050565b60006001600083815260200190815260200160002060070160009054906101000a900460ff169050919050565b600060016000838152602001908152602001600020604051806101200160405290816000820160009054906101000a900473ffffffffffffffffffffffffffffffffffffffff1673ffffffffffffffffffffffffffffffffffffffff1673ffffffffffffffffffffffffffffffffffffffff1681526020016001820160009054906101000a900473ffffffffffffffffffffffffffffffffffffffff1673ffffffffffffffffffffffffffffffffffffffff1673ffffffffffffffffffffffffffffffffffffffff1681526020016002820160009054906101000a900473ffffffffffffffffffffffffffffffffffffffff1673ffffffffffffffffffffffffffffffffffffffff1673ffffffffffffffffffffffffffffffffffffffff1681526020016003820154815260200160048201548152602001600582018054610be790611da0565b80601f0160208091040260200160405190810160405280929190818152602001828054610c1390611da0565b8015610c605780601f10610c3557610100808354040283529160200191610c60565b820191906000526020600020905b815481529060010190602001808311610c4357829003601f168201915b50505050508152602001600682015481526020016007820160009054906101000a900460ff161515151581526020016007820160019054906101000a900460ff16151515158152505090503373ffffffffffffffffffffffffffffffffffffffff16816000015173ffffffffffffffffffffffffffffffffffffffff1614610d1d576040517f08c379a0000000000000000000000000000000000000000000000000000000008152600401610d1490611f22565b60405180910390fd5b600180600084815260200190815260200160002060070160006101000a81548160ff02191690831515021790555060006001600084815260200190815260200160002060070160016101000a81548160ff0219169083151502179055505050565b610d866114c5565b60016000838152602001908152602001600020604051806101200160405290816000820160009054906101000a900473ffffffffffffffffffffffffffffffffffffffff1673ffffffffffffffffffffffffffffffffffffffff1673ffffffffffffffffffffffffffffffffffffffff1681526020016001820160009054906101000a900473ffffffffffffffffffffffffffffffffffffffff1673ffffffffffffffffffffffffffffffffffffffff1673ffffffffffffffffffffffffffffffffffffffff1681526020016002820160009054906101000a900473ffffffffffffffffffffffffffffffffffffffff1673ffffffffffffffffffffffffffffffffffffffff1673ffffffffffffffffffffffffffffffffffffffff1681526020016003820154815260200160048201548152602001600582018054610ecb90611da0565b80601f0160208091040260200160405190810160405280929190818152602001828054610ef790611da0565b8015610f445780601f10610f1957610100808354040283529160200191610f44565b820191906000526020600020905b815481529060010190602001808311610f2757829003601f168201915b50505050508152602001600682015481526020016007820160009054906101000a900460ff161515151581526020016007820160019054906101000a900460ff1615151515815250509050919050565b600060016000838152602001908152602001600020604051806101200160405290816000820160009054906101000a900473ffffffffffffffffffffffffffffffffffffffff1673ffffffffffffffffffffffffffffffffffffffff1673ffffffffffffffffffffffffffffffffffffffff1681526020016001820160009054906101000a900473ffffffffffffffffffffffffffffffffffffffff1673ffffffffffffffffffffffffffffffffffffffff1673ffffffffffffffffffffffffffffffffffffffff1681526020016002820160009054906101000a900473ffffffffffffffffffffffffffffffffffffffff1673ffffffffffffffffffffffffffffffffffffffff1673ffffffffffffffffffffffffffffffffffffffff16815260200160038201548152602001600482015481526020016005820180546110db90611da0565b80601f016020809104026020016040519081016040528092919081815260200182805461110790611da0565b80156111545780601f1061112957610100808354040283529160200191611154565b820191906000526020600020905b81548152906001019060200180831161113757829003601f168201915b50505050508152602001600682015481526020016007820160009054906101000a900460ff161515151581526020016007820160019054906101000a900460ff16151515158152505090506111a882610a73565b6111e7576040517f08c379a00000000000000000000000000000000000000000000000000000000081526004016111de90611fda565b60405180910390fd5b60008160c0015114806112115750806080015181608001518260c0015161120e9190612029565b10155b611250576040517f08c379a0000000000000000000000000000000000000000000000000000000008152600401611247906120a9565b60405180910390fd5b806000015173ffffffffffffffffffffffffffffffffffffffff16635229073f826040015160007fa9059cbb2ab09eb219583f4a59a5d0623ade346d962bcd4e46b11da047c9049b856020015186606001516040516024016112b39291906120c9565b604051602081830303815290604052907bffffffffffffffffffffffffffffffffffffffffffffffffffffffff19166020820180517bffffffffffffffffffffffffffffffffffffffffffffffffffffffff838183161783525050505060006040518563ffffffff1660e01b81526004016113319493929190612203565b600060405180830381600087803b15801561134b57600080fd5b505af115801561135f573d6000803e3d6000fd5b505050506040513d6000823e3d601f19601f82011682018060405250810190611388919061231c565b50504260016000848152602001908152602001600020600601819055505050565b60606000808373ffffffffffffffffffffffffffffffffffffffff1673ffffffffffffffffffffffffffffffffffffffff16815260200190815260200160002080548060200260200160405190810160405280929190818152602001828054801561143357602002820191906000526020600020905b81548152602001906001019080831161141f575b50505050509050919050565b82805461144b90611da0565b90600052602060002090601f01602090048101928261146d57600085556114b4565b82601f1061148657805160ff19168380011785556114b4565b828001600101855582156114b4579182015b828111156114b3578251825591602001919060010190611498565b5b5090506114c19190611557565b5090565b604051806101200160405280600073ffffffffffffffffffffffffffffffffffffffff168152602001600073ffffffffffffffffffffffffffffffffffffffff168152602001600073ffffffffffffffffffffffffffffffffffffffff168152602001600081526020016000815260200160608152602001600081526020016000151581526020016000151581525090565b5b80821115611570576000816000905550600101611558565b5090565b6000604051905090565b600080fd5b600080fd5b6000819050919050565b61159b81611588565b81146115a657600080fd5b50565b6000813590506115b881611592565b92915050565b6000602082840312156115d4576115d361157e565b5b60006115e2848285016115a9565b91505092915050565b600073ffffffffffffffffffffffffffffffffffffffff82169050919050565b6000611616826115eb565b9050919050565b6116268161160b565b82525050565b6000819050919050565b61163f8161162c565b82525050565b600081519050919050565b600082825260208201905092915050565b60005b8381101561167f578082015181840152602081019050611664565b8381111561168e576000848401525b50505050565b6000601f19601f8301169050919050565b60006116b082611645565b6116ba8185611650565b93506116ca818560208601611661565b6116d381611694565b840191505092915050565b60008115159050919050565b6116f3816116de565b82525050565b60006101208201905061170f600083018c61161d565b61171c602083018b61161d565b611729604083018a61161d565b6117366060830189611636565b6117436080830188611636565b81810360a083015261175581876116a5565b905061176460c0830186611636565b61177160e08301856116ea565b61177f6101008301846116ea565b9a9950505050505050505050565b6117968161160b565b81146117a157600080fd5b50565b6000813590506117b38161178d565b92915050565b6117c28161162c565b81146117cd57600080fd5b50565b6000813590506117df816117b9565b92915050565b600080fd5b600080fd5b7f4e487b7100000000000000000000000000000000000000000000000000000000600052604160045260246000fd5b61182782611694565b810181811067ffffffffffffffff82111715611846576118456117ef565b5b80604052505050565b6000611859611574565b9050611865828261181e565b919050565b600067ffffffffffffffff821115611885576118846117ef565b5b61188e82611694565b9050602081019050919050565b82818337600083830152505050565b60006118bd6118b88461186a565b61184f565b9050828152602081018484840111156118d9576118d86117ea565b5b6118e484828561189b565b509392505050565b600082601f830112611901576119006117e5565b5b81356119118482602086016118aa565b91505092915050565b600080600080600080600060e0888a0312156119395761193861157e565b5b60006119478a828b016117a4565b97505060206119588a828b016117a4565b96505060406119698a828b016117a4565b955050606061197a8a828b016117d0565b945050608061198b8a828b016117d0565b93505060a088013567ffffffffffffffff8111156119ac576119ab611583565b5b6119b88a828b016118ec565b92505060c06119c98a828b016117d0565b91505092959891949750929550565b6119e181611588565b82525050565b60006020820190506119fc60008301846119d8565b92915050565b60008060008060008060c08789031215611a1f57611a1e61157e565b5b6000611a2d89828a016117a4565b9650506020611a3e89828a016117a4565b9550506040611a4f89828a016117a4565b9450506060611a6089828a016117d0565b9350506080611a7189828a016117d0565b92505060a087013567ffffffffffffffff811115611a9257611a91611583565b5b611a9e89828a016118ec565b9150509295509295509295565b60008060408385031215611ac257611ac161157e565b5b6000611ad0858286016117a4565b9250506020611ae1858286016117d0565b9150509250929050565b6000602082019050611b0060008301846116ea565b92915050565b611b0f8161160b565b82525050565b611b1e8161162c565b82525050565b600082825260208201905092915050565b6000611b4082611645565b611b4a8185611b24565b9350611b5a818560208601611661565b611b6381611694565b840191505092915050565b611b77816116de565b82525050565b600061012083016000830151611b966000860182611b06565b506020830151611ba96020860182611b06565b506040830151611bbc6040860182611b06565b506060830151611bcf6060860182611b15565b506080830151611be26080860182611b15565b5060a083015184820360a0860152611bfa8282611b35565b91505060c0830151611c0f60c0860182611b15565b5060e0830151611c2260e0860182611b6e565b50610100830151611c37610100860182611b6e565b508091505092915050565b60006020820190508181036000830152611c5c8184611b7d565b905092915050565b600060208284031215611c7a57611c7961157e565b5b6000611c88848285016117a4565b91505092915050565b600081519050919050565b600082825260208201905092915050565b6000819050602082019050919050565b611cc681611588565b82525050565b6000611cd88383611cbd565b60208301905092915050565b6000602082019050919050565b6000611cfc82611c91565b611d068185611c9c565b9350611d1183611cad565b8060005b83811015611d42578151611d298882611ccc565b9750611d3483611ce4565b925050600181019050611d15565b5085935050505092915050565b60006020820190508181036000830152611d698184611cf1565b905092915050565b7f4e487b7100000000000000000000000000000000000000000000000000000000600052602260045260246000fd5b60006002820490506001821680611db857607f821691505b60208210811415611dcc57611dcb611d71565b5b50919050565b600060e082019050611de7600083018a61161d565b611df4602083018961161d565b611e01604083018861161d565b611e0e6060830187611636565b611e1b6080830186611636565b81810360a0830152611e2d81856116a5565b9050611e3c60c0830184611636565b98975050505050505050565b600060c082019050611e5d600083018961161d565b611e6a602083018861161d565b611e77604083018761161d565b611e846060830186611636565b611e916080830185611636565b81810360a0830152611ea381846116a5565b9050979650505050505050565b7f4f6e6c792050617965722063616e20417574686f72697a65205472616e73616360008201527f74696f6e00000000000000000000000000000000000000000000000000000000602082015250565b6000611f0c602483611650565b9150611f1782611eb0565b604082019050919050565b60006020820190508181036000830152611f3b81611eff565b9050919050565b6000608082019050611f57600083018761161d565b611f646020830186611636565b611f716040830185611636565b8181036060830152611f8381846116a5565b905095945050505050565b7f4e6f7420417574686f72697a6564000000000000000000000000000000000000600082015250565b6000611fc4600e83611650565b9150611fcf82611f8e565b602082019050919050565b60006020820190508181036000830152611ff381611fb7565b9050919050565b7f4e487b7100000000000000000000000000000000000000000000000000000000600052601160045260246000fd5b60006120348261162c565b915061203f8361162c565b92508282101561205257612051611ffa565b5b828203905092915050565b7f43616e277420436861726765204f7574206f662074696d650000000000000000600082015250565b6000612093601883611650565b915061209e8261205d565b602082019050919050565b600060208201905081810360008301526120c281612086565b9050919050565b60006040820190506120de600083018561161d565b6120eb6020830184611636565b9392505050565b6000819050919050565b6000819050919050565b600061212161211c612117846120f2565b6120fc565b61162c565b9050919050565b61213181612106565b82525050565b600081519050919050565b600082825260208201905092915050565b600061215e82612137565b6121688185612142565b9350612178818560208601611661565b61218181611694565b840191505092915050565b7f4e487b7100000000000000000000000000000000000000000000000000000000600052602160045260246000fd5b600281106121cc576121cb61218c565b5b50565b60008190506121dd826121bb565b919050565b60006121ed826121cf565b9050919050565b6121fd816121e2565b82525050565b6000608082019050612218600083018761161d565b6122256020830186612128565b81810360408301526122378185612153565b905061224660608301846121f4565b95945050505050565b612258816116de565b811461226357600080fd5b50565b6000815190506122758161224f565b92915050565b600067ffffffffffffffff821115612296576122956117ef565b5b61229f82611694565b9050602081019050919050565b60006122bf6122ba8461227b565b61184f565b9050828152602081018484840111156122db576122da6117ea565b5b6122e6848285611661565b509392505050565b600082601f830112612303576123026117e5565b5b81516123138482602086016122ac565b91505092915050565b600080604083850312156123335761233261157e565b5b600061234185828601612266565b925050602083015167ffffffffffffffff81111561236257612361611583565b5b61236e858286016122ee565b915050925092905056fea2646970667358221220c613f17755a5e4ecf64792b7e74d016fe0beb202ef8004036a582e3f1327899764736f6c63430008090033",
  "linkReferences": {},
  "deployedLinkReferences": {}
}